:020000040800F2
:10000000B0090020D1010008F92D0008772500086B
:10001000F52D0008690500081D32000800000000E9
:10002000000000000000000000000000B12F0008E8
:100030006D05000800000000FB2D0008B32F00082C
:10004000EB010008EB010008EB010008EB010008E0
:10005000EB010008EB0100086F050008EB01000848
:10006000EB010008EB010008EB010008EB010008C0
:10007000EB010008EB010008EB010008EB010008B0
:10008000EB010008EB010008EB010008EB010008A0
:10009000EB010008EB010008EB010008EB01000890
:1000A000EB010008EB010008EB010008EB01000880
:1000B000EB010008EB010008EB010008EB01000870
:1000C000EB010008EB010008EB010008EB01000860
:1000D000EB0100080D320008EB010008EB010008FD
:1000E00079050008EB010008EB010008EB010008AE
:1000F000EB010008EB010008EB010008EB01000830
:10010000EB010008EB010008EB010008EB0100081F
:10011000EB010008EB010008EB010008EB0100080F
:10012000EB010008EB010008EB010008EB010008FF
:1001300000F002F800F03CF80AA090E8000C8244BD
:100140008344AAF10107DA4501D100F031F8AFF29A
:10015000090EBAE80F0013F0010F18BFFB1A43F0A5
:1001600001031847EC6E00000C6F0000103A24BF2A
:1001700078C878C1FAD8520724BF30C830C144BF0C
:1001800004680C607047000000230024002500264E
:10019000103A28BF78C1FBD8520728BF30C148BFEA
:1001A0000B607047002070471FB51FBD10B510BD14
:1001B00000F032F91146FFF7F7FF03F0F5F800F011
:1001C00050F903B4FFF7F2FF03BC03F0A8F80000F6
:1001D0000948804709480047FEE7FEE7FEE7FEE7DB
:1001E000FEE7FEE7FEE7FEE7FEE7FEE70448054917
:1001F000054A064B70470000BB2F0008310100087C
:10020000B0030020B0090020B0050020B005002098
:10021000704700000FB4044910B503AA029800F01B
:10022000E5F810BC5DF814FB340000202DE9F05F08
:10023000894604464FF0000ADFF824B1FB44C0F8B9
:1002400020A02046E168884700287DD0252806D0D8
:10025000D4E901219047206A401C2062F1E7002583
:100260005F462046E16888472028064607DB312E96
:1002700005D2B81910F8200C08B10543F1E7A8071A
:1002800001D525F00405C4F81CA00027C4F818A067
:100290002A2E09D0304603F03BF838B304EB870828
:1002A000303EC8F8186019E059F8041B204604EBEA
:1002B00087029161E1688847012F064618D1E069FD
:1002C000002820DA25F020051DE0D8F8180000EB02
:1002D000800006EB40003038C8F818002046E1687E
:1002E0008847064603F014F80028EED1012F0AD003
:1002F0002E2E08D12046E16888477F1C0646022F33
:1003000045F02005C4DBA069002803DA404245F02F
:100310000105A061E80701D025F01005A6B1A6F1FE
:100320004100192802D8203645F400654A46314676
:10033000204625604D46FFF735FF60B1012807D004
:10034000ED1D25F0070000E007E000F1080978E75F
:1003500005F1040975E730467AE7206ABDE8F09FA9
:10036000FC6D00004FF0000200B51346944696461F
:10037000203922BFA0E80C50A0E80C50B1F12001B8
:10038000BFF4F7AF090728BFA0E80C5048BF0CC066
:100390005DF804EB890028BF40F8042B08BF7047C4
:1003A00048BF20F8022B11F0804F18BF00F8012B36
:1003B00070477047704770477047000001694A1CDA
:1003C00002610878704700B58FB0CDE90131002196
:1003D000059105497944CDE9031011466846FFF7B8
:1003E00025FF0FB000BD0000E5FFFFFF074B70B514
:1003F0000D467B44FFF7E7FF0446284600F008F867
:1004000010B14FF0FF3070BD204670BD972F000037
:10041000007B00F080007047754600F02BF8AE4678
:1004200005006946534620F00700854618B020B500
:10043000FFF7DCFEBDE820404FF000064FF000075C
:100440004FF000084FF0000B21F00701AC46ACE87C
:10045000C009ACE8C009ACE8C009ACE8C0098D46E9
:10046000704710B50446AFF300802046BDE8104049
:10047000FFF7A7BE004870474C03002070B5044644
:1004800000252068806800F00100F0B120688068D5
:1004900020F001002168886000F072FE05460EE041
:1004A00000F06EFE401B022809D9A06A40F010003F
:1004B000A062E06A40F00100E062012070BD2068A7
:1004C000806800F001000028EAD10020F6E7000073
:1004D0000EB510481049086000210F4881600121C5
:1004E0000173002101754FF46021C16100200A49A8
:1004F000486001210848016100F064FA1020009072
:1005000001200190052002906946034800F0AAF9F5
:100510000EBD000000240140BC01002000B585B0E4
:1005200000BF0F48806940F010000D4988610846FF
:10053000806900F01000009000BF00BF0120019012
:100540000290022003900320049001A9054800F0C6
:1005500067FC00220121034800F00CFE05B000BD3D
:10056000001002400010014000BFFEE7704710B5C8
:10057000012000F047FC10BD10B54FF4005000F012
:1005800041FC10BD00B585B000BF1E48806940F039
:1005900004001C4988610846806900F0040000904E
:1005A00000BF00BF00BF0846806940F010008861AE
:1005B0000846806900F01000009000BF00BF0120D5
:1005C0000190114802900020039001A90F4800F00B
:1005D00027FC00221146062000F065FF062000F0EF
:1005E00052FF4FF40050019001A9094800F018FC97
:1005F00000221146282000F056FF282000F043FF7B
:1006000005B000BD001002400000111000080140BC
:100610000010014070B50446B3F5804F13D1D1E905
:10062000000540EA05108D6840EA05208D692843E1
:100630008D8940EA054054F82250064E3540284343
:1006400044F8220003E06FF0704044F822000020DC
:1006500070BD00000000F0CF70B50246086852F887
:10066000200020F001000E6842F826008868082863
:1006700001D1402300E00023486818438E683043CE
:10068000CE6830430E6930434E693043CE69304303
:100690000E6A30434E6A30438E6A3043CE6A30432E
:1006A0000E6B40EA060488690443486B0443074D17
:1006B00045F4806545F4E025086852F82000A84319
:1006C00020430E6842F82600002070BD7FFB080022
:1006D00010B50346D1E9000440EA04108C6840EAF2
:1006E00004208C8940EA0444088A401E44EA0054ED
:1006F000087D801E44EA00608C692043541C53F836
:10070000244004F040442043541C43F824000020BB
:1007100010BD000010B54FF0204016490860164883
:100720004860002015490860486008208860002063
:10073000C86008614861886104200E498860002112
:100740000C48C16001611021416100218161C161DA
:1007500041624FF4805181620021C16201634163B3
:10076000816300F00DF8054A1146024801F0EEFCE5
:1007700010BD0000F4000020040100A03C01002096
:1007800000B585B000BF3248406940F48070304900
:1007900048610846406900F48070009000BF00BFC7
:1007A00000BF0846806940F02000886108468069E3
:1007B00000F02000009000BF00BF00BF0846806925
:1007C00040F0400088610846806900F040000090D9
:1007D00000BF00BF00BF0846806940F0800088610C
:1007E0000846806900F08000009000BF00BF00BF95
:1007F0000846806940F4807088610846806900F48A
:100800008070009000BF00BF022002900120039082
:10081000032004904FF63370019001A90D4800F0B9
:10082000FFFA4FF68370019001A90B4800F0F8FA27
:100830004FF23F00019001A9084800F0F1FA40F2A0
:100840003F40019001A9064800F0EAFA05B000BD5A
:10085000001002400014014000180140001C01403B
:100860000020014038B5024600230020009000BF60
:1008700092F82400012801D1022038BD012082F81D
:10088000240000BF4868072812D21068406B0C791A
:10089000641E04EB84051F24AC40A0430D796D1E3B
:1008A00005EB85050C68AC4020431468606327E0C5
:1008B00048680D2812D21068006B0C79E41F04EB15
:1008C00084051F24AC40A0430D79ED1F05EB850581
:1008D0000C68AC4020431468206311E01068C06AC3
:1008E0000C790D3C04EB84051F24AC40A0430D792A
:1008F0000D3D05EB85050C68AC4020431468E062B3
:1009000008680A2812D31068C0680C780A3C04EB07
:1009100044050724AC40A0430D780A3D05EB45058E
:100920008C68AC4020431468E0600FE010680069F8
:100930000C7804EB44050724AC40A0430D7805EB8C
:1009400045058C68AC402043146820610868102875
:1009500002D00868112827D1174C1068A0421ED178
:100960001068806800F40000F0B91068806840F4F6
:1009700000001468A0600868102815D10F480068AE
:100980000F4CB0FBF4F000EB80004000009002E060
:100990000098401E009000980028F9D104E0906A69
:1009A00040F020009062012300BF002082F8240064
:1009B00000BF184661E7000000240140000000204D
:1009C00040420F002DE9F041044600270025002693
:1009D000A84614B90120BDE8F081A06810B1207DBF
:1009E00000B100BFA06A30B90020E06284F82400A2
:1009F000204600F097F82046FFF740FD0746A06A22
:100A000000F01000002873D1002F7ED1A06A20F4DE
:100A1000885040F00200A0623F4AD4E900019042B1
:100A200008D1E069B0F5402F02D14FF4002002E078
:100A3000E06900E0E0690143207B41EA40000643B1
:100A4000A068B0F5807F02D0A068012802D14FF4E1
:100A5000807000E000200543207D012811D1207B1B
:100A600038B9A069401E4FF4006141EA40300543A7
:100A700007E0A06A40F02000A062E06A40F00100B8
:100A8000E0622068406820F469402843216848609B
:100A90002068806821490840304321688860A06848
:100AA000B0F5807F02D0A068012802D14FF4807099
:100AB00000E00020B0F5807F03D1208A401E4FEA7D
:100AC00000582068C06A20F4700040EA08002168DD
:100AD000C8622068806812490840B04209D10020ED
:100AE000E062A06A20F0020040F00100A06211E084
:100AF0000BE0A06A20F0020040F01000A062E06A63
:100B000040F00100E062012704E0A06A40F010001C
:100B1000A062012738465EE7003C0140FDF7E1FF97
:100B2000FE0E1FFF38B5044600BF1A48806940F426
:100B30000070184988610846806900F400700090D0
:100B400000BF00BF00BF0846406940F00100486197
:100B50000846406900F00100009000BF00BF0E4849
:100B60000E4908600020486000210C488160802107
:100B7000C160490001618900416120218161090250
:100B8000C16100F0E1F800BF04482062446200BF88
:100B900038BD00000010024008000240EC010020B7
:100BA00070B50446002594F82100022803D00420E3
:100BB000A0630125C1E02068006820F00E002168D4
:100BC00008602068006820F00100216808605C4926
:100BD0002068884252D95A4978392068884201D120
:100BE000012047E0564964392068884201D110202D
:100BF00040E0534950392068884201D1801539E0DE
:100C00004F493C392068884201D1801432E04C4978
:100C100028392068884202D14FF480302AE04849C0
:100C200014392068884202D14FF4801022E04449F0
:100C30002068884201D140041CE042492068884273
:100C400001D1012016E03F4914312068884201D1CA
:100C500010200FE03B4928312068884201D18015DF
:100C600008E038493C312068884201D1801401E015
:100C70004FF480303349091F086051E0304978391A
:100C80002068884201D1012047E02D49643920685D
:100C9000884201D1102040E029495039206888421B
:100CA00001D1801539E026493C392068884201D1BC
:100CB000801432E0224928392068884202D14FF45A
:100CC00080302AE01E4914392068884202D14FF44E
:100CD000801022E01A492068884201D140041CE0BB
:100CE00018492068884201D1012016E015491431C5
:100CF0002068884201D110200FE012492831206875
:100D0000884201D1801508E00E493C3120688842B4
:100D100001D1801401E04FF48030094980394860E6
:100D2000012084F8210000BF002084F8200000BFCB
:100D3000606B10B12046616B8847284670BD00008B
:100D400080000240080402400146002209B9012047
:100D500070471E4B086898420BD21D4B0868C01A9A
:100D60001423B0FBF3F08000086419480838C86306
:100D70000AE0164B0868C01A1423B0FBF3F0800099
:100D8000086412480838C863022081F82100086806
:100D9000026843F6F0708243D1E901031843CB683F
:100DA00018430B6918434B6918438B691843CB6987
:100DB000184302430868026000208863012081F81C
:100DC0002100002081F8200000BFC1E70804024094
:100DD00008000240012803D0B0F5005F0ED106E004
:100DE0000749096881F02001054A116006E00449BD
:100DF000096881F00101024A116000BF00BF70471D
:100E00000C0C014010B5044604480068204020B195
:100E1000024804602046FFF7DDFF10BD14040140C6
:100E20002DE9F847024600239C467BE14FF001087C
:100E300008FA03F4D1F8008008EA0400A0427DD14A
:100E4000DFF8F4A2D1F80480A8EB0A09D0453AD023
:100E500014DCB8F1030F50D009DCB8F1000F31D029
:100E6000B8F1010F1CD0B8F1020F49D120E0B8F160
:100E7000110F18D0B8F1120F42D11EE0B9F5881F3A
:100E800025D006DCB9F5803F20D0B9F5801F37D1D9
:100E90001AE0B9F5001F18D0B9F5041F30D117E0DA
:100EA000D1F80CC02DE0D1F80C8008F1040C28E03A
:100EB000D1F80C8008F1080C23E0D1F80C8008F17F
:100EC0000C0C1EE000BF00BF00BF00BF00BF00BF92
:100ED000D1F80880B8F1000F02D14FF0040C0BE0FC
:100EE000D1F80880B8F1010F03D14FF0080C14615C
:100EF00002E04FF0080C546103E04FF0000C00E0FA
:100F000000BF00BFFF2801D8904601E002F10408AD
:100F10004646FF2802D84FEA830803E0A3F10808F9
:100F20004FEA88084746D6F800804FF00F0909FAC3
:100F300007F928EA09080CFA07F900E07AE048EA1C
:100F40000908C6F80080D1F8048008F08058B8F18C
:100F5000805F6FD100BFDFF8E481D8F8188048F0D7
:100F60000108DFF8D891C9F81880C846D8F8188069
:100F700008F00108CDF8008000BF00BF4FEAB93883
:100F80004FEA930958F829504FEA83784FEA1879C5
:100F90004FF00F0808FA09F825EA0805DFF8A081E4
:100FA000424502D14FF0000824E0DFF89881424525
:100FB00002D14FF001081DE0DFF88C81424502D1DB
:100FC0004FF0020816E0DFF88481424502D14FF06D
:100FD00003080FE0DFF87881424502D14FF00408A2
:100FE00008E0DFF87081424502D14FF0050801E0CA
:100FF0004FF006084FEA83794FEA197908FA09F8A1
:1010000048EA0505DFF850814FEA930948F829506E
:10101000D1F8048008F48038B8F5803F0BD1DFF8B0
:101020003C81D8F8008048EA0008DFF83091C9F820
:1010300000800AE075E0DFF82481D8F8008028EA13
:101040000008DFF81891C9F80080D1F8048008F48E
:101050000038B8F5003F0ED1DFF8008108F1040830
:10106000D8F8008048EA0008DFF8F09009F1040998
:10107000C9F800800DE0DFF8E48008F10408D8F832
:10108000008028EA0008DFF8D49009F10409C9F8C3
:101090000080D1F8048008F48018B8F5801F0ED1C4
:1010A000DFF8B88008F10808D8F8008048EA00089E
:1010B000DFF8A89009F10809C9F800800DE0DFF811
:1010C0009C8008F10808D8F8008028EA0008DFF8BA
:1010D0008C9009F10809C9F80080D1F8048008F45F
:1010E0000018B8F5001F0ED1DFF8708008F10C0869
:1010F000D8F8008048EA0008DFF8609009F10C0990
:10110000C9F800800DE0DFF8548008F10C08D8F829
:10111000008028EA0008DFF8449009F10C09C9F8BA
:1011200000805B1CD1F8008028FA03F8B8F1000FAA
:101130007FF47CAEBDE8F88700001110001002407B
:1011400000080140000C0140001001400014014063
:1011500000180140001C014008000140000401404B
:1011600010B5C26821EA020302EA010443EA04431B
:10117000036110BD0AB1016101E00B040361704716
:1011800001480068704700003C00002070B504462C
:101190000CB9012070BD94F83D0028B9002084F8F6
:1011A0003C00204600F0DAF8242084F83D00206856
:1011B000006820F00100216808602068006840F4A1
:1011C0000040216808602068006820F40040216821
:1011D000086000F0BFFB05465C496068884206D89D
:1011E0005B48854201D2012007E0002005E0594814
:1011F000854201D2012000E00020012800D1C9E78A
:101200005548B5FBF0F62068406820F03F003043B9
:10121000216848604D496068884201D8701C07E029
:101220004FF4967070434FF47A71B0FBF1F0401CAC
:101230002168096A21F03F01084321680862434997
:101240006068884214D8681E61684900B0FBF1F0FC
:10125000401CC0F30B00042801D204203DE0681EAE
:1012600061684900B0FBF1F0401CC0F30B0034E0B2
:10127000A06838B9681E616801EB4101B0FBF1F06C
:10128000401C0AE0681E616801EBC10202EB01111B
:10129000B0FBF1F0401C40F48040C0F30B0008B9F3
:1012A00001201AE0A06848B9681E616801EB41019D
:1012B000B0FBF1F0401CC0F30B000CE0681E61684D
:1012C00001EBC10202EB0111B0FBF1F0401CC0F3D5
:1012D0000B0040F4804040F400402168C9694CF69E
:1012E000FF72914308432168C861D4E907010843AC
:1012F0002168096821F0C001084321680860D4E929
:10130000031008432168896848F2FF32914308437B
:1013100021688860D4E9050108432168C96821F083
:10132000FF0108432168C8602068006840F00100A0
:101330002168086000202064202084F83D000020FF
:10134000206384F83E0000BF24E70000A08601006F
:1013500080841E0000093D0040420F0010B586B099
:10136000044600BF2248806940F008002049886197
:101370000846806900F00800019000BF00BF00BF70
:101380000846806940F0080088610846806900F0DE
:101390000800019000BF00BF00BF0846C06940F4CC
:1013A0000010C8610846C06900F40010019000BF39
:1013B00000BF4020029012200390002004900320E0
:1013C000059002A90B48FFF72BFD8020029002A98F
:1013D0000848FFF725FD0648006940F4001004495D
:1013E00008610846006920F40010086106B010BDCD
:1013F00000100240000C01400348006803490978CE
:1014000008440149086070473C0000204400002067
:1014100010B50848006840F0100006490860052033
:1014200000F080F80F2000F007F800F02BF8002003
:1014300010BD00000020024070B504460E48007840
:101440004FF47A71B1FBF0F00C490968B1FBF0F58B
:10145000284600F0AFFE08B1012070BD102C07D265
:1014600000222146501E00F01EF80548046001E0ED
:101470000120F2E70020F0E74400002000000020F7
:1014800040000020704701460846002809DB00F0B4
:101490001F0301229A4043099B0003F1E023C3F894
:1014A000002100BF70472DE9F05F80460D461646CB
:1014B000002701F011FF074639462A46334601F05E
:1014C0000700C0F1070ABAF1040F02D94FF0040A6D
:1014D00001E0C0F1070AD14600F1040ABAF1070F92
:1014E00002D24FF0000A01E0A0F1030AD4464FF007
:1014F000010A0AFA09FAAAF1010A0AEA020A0AFA30
:101500000CFA4FF0010B0BFA0CFBABF1010B0BEAE1
:10151000030B4AEA0B042146404601F0E5FEBDE814
:10152000F09F000000BF00F00702064B19684FF65D
:10153000FF031940044B0B4343EA0221014B19609E
:1015400000BF70470CED00E00000FA0501200149E2
:101550000862704700000E422DE9F04385B0064650
:1015600042A30FCB01AC0FC444A0006800904FF021
:101570000008002500270024A146042E36D004DCF4
:10158000012E3BD0022E6BD15FE0082E32D0102E00
:1015900066D13B484468006800F0807000B301A841
:1015A000C4F38341475C04F4803070B13448406830
:1015B000C0F340401DF8008004F4803040B1314851
:1015C000B0FBF8F000FB07F502E02F4807FB00F541
:1015D0002B48406800F48000B0F5800F01D1A94687
:1015E00003E068000321B0FBF1F93AE000F0D2F922
:1015F000814636E000F0CEF9814632E02048046AA8
:1016000004F44070B0F5807F05D104F0020010B101
:101610004FF4004918E004F44070B0F5007F07D1A2
:101620001748406A00F0020010B149F640490BE04B
:1016300004F44070B0F5407F06D11148006800F412
:10164000003008B14FF224490BE000F093F90C4947
:101650004968C1F38131491C4900B0FBF1F900E050
:1016600000BF00BF484605B0BDE8F0830203040593
:10167000060708090A0B0C0D0E0F101001020000DE
:101680000010024000127A0000093D00F8B504463F
:1016900000260025207800F0010000286BD00027EC
:1016A0004348C06900F0805070B900BF4048C0692D
:1016B00040F080503E49C8610846C06900F0805043
:1016C000009000BF00BF01273A48006800F4807016
:1016D000B0B93848006840F4807036490860FFF7B8
:1016E0004FFD064606E0FFF74BFD801B642801D93D
:1016F0000320F8BD2F48006800F480700028F2D065
:101700002B48006A00F440752DB3A08800F44070A7
:10171000A84220D02648006A20F4407501202649BE
:101720000860002008602248056205F0010090B1C1
:10173000FFF726FD064608E0FFF722FD801B41F279
:101740008831884201D90320D3E71948006A00F0A4
:1017500002000028F0D01648006A20F4407061684A
:10176000084313490862012F04D10846C06920F0DC
:101770008050C86100BF207800F00200022807D125
:101780000B48406820F44040A1680843084948607D
:10179000207800F01000102807D10548406820F498
:1017A000800061690843024948600020A1E7000009
:1017B00000100240007000404004424270B50446F0
:1017C0000D460CB9012070BD5A48006800F00700B2
:1017D000A8420ED25748006820F007002843554918
:1017E00008600846006800F00700A84201D0012008
:1017F000E9E7207800F0020002281DD1207800F0EF
:101800000400042805D14C48406840F4E0604A498F
:101810004860207800F00800082805D14648406854
:1018200040F46050444948604348406820F0F0006C
:10183000A168084340494860207800F0010078B36F
:101840006068012806D13C48006800F4003090B977
:101850000120B8E76068022806D13748006800F028
:10186000007040B90120AEE73348006800F0020084
:1018700008B90120A7E73048406820F003006168FC
:1018800008432D494860FFF77BFC064609E0FFF757
:1018900077FC801B41F28831884202D9032092E70D
:1018A00007E02548406800F00C006168B0EB810F4C
:1018B000EDD12048006800F00700A8420ED91D486D
:1018C000006820F0070028431A49086008460068AD
:1018D00000F00700A84201D0012074E7207800F052
:1018E0000400042807D11448406820F4E060E1684F
:1018F000084311494860207800F00800082808D102
:101900000D48406820F46050216940EAC1000A494E
:10191000486000F03FF808494968C1F30311074ADD
:10192000515CC8400649086006480068FFF784FD1E
:10193000002048E70020024000100240C4340008A4
:1019400000000020400000200148006870470000AF
:101950000000002000B5FFF7F7FF04494968C1F314
:101960000221034A515CC84000BD00000010024043
:10197000D434000800B5FFF7E7FF04494968C1F314
:10198000C221034A515CC84000BD00000010024063
:10199000D4340008F0B585B00FF26C0C9CE8E01070
:1019A00001A8A0E8E0101CA52D68009500210022E8
:1019B000002300240020194D696801F00C05F5B1E1
:1019C000042D02D0082D19D101E0154819E001AD10
:1019D000C1F38346AC5D01F4803555B10F4D6D68A0
:1019E000C5F340451DF805200D4D6543B5FBF2F3E9
:1019F00002E00C4D04FB05F3184602E000BF084866
:101A000000BF00BF05B0F0BD0203040506070809CA
:101A10000A0B0C0D0E0F1010010200000010024006
:101A200000127A0000093D00F8B504460CB9012007
:101A3000F8BD207800F00100002878D0F848406810
:101A400000F00C0004280CD0F548406800F00C00B1
:101A5000082811D1F248406800F48030B0F5803F8A
:101A60000AD1EF48006800F4003000285FD06068B9
:101A700000285CD10120DBE700BF6068B0F5803F43
:101A800006D1E748006840F48030E549086028E066
:101A9000606858B9E248006820F48030E049086086
:101AA0000846006820F4802008601AE06068B0F5FD
:101AB000A02F0BD1DA48006840F48020D849086094
:101AC0000846006840F4803008600AE0D4480068A6
:101AD00020F48030D24908600846006820F4802055
:101AE000086000BF606888B1FFF74AFB054606E062
:101AF000FFF746FB401B642801D9032098E7C8483C
:101B0000006800F400300028F2D010E0FFF738FB46
:101B1000054606E0FFF734FB401B642801D903208B
:101B200086E7BF48006800F400300028F2D1207832
:101B300000F00200022857D1B948406800F00C00BC
:101B400050B1B748406800F00C00082818D1B448DC
:101B5000406800F4803098B9B148006800F0020095
:101B600020B12069012801D0012061E7AC4800685C
:101B700020F0F800616940EAC100A949086033E03B
:101B80002069E8B10120A7490860FFF7F9FA054686
:101B900006E0FFF7F5FA401B022801D9032047E7CA
:101BA0009F48006800F002000028F2D09C480068BE
:101BB00020F0F800616940EAC1009949086013E02B
:101BC000002098490860FFF7DBFA054606E0FFF7BA
:101BD000D7FA401B022801D9032029E79048006862
:101BE00000F002000028F2D1207800F00800082858
:101BF0002DD1A069B8B101208B490860FFF7C0FA68
:101C0000054606E0FFF7BCFA401B022801D9032075
:101C10000EE78348406A00F002000028F2D001205D
:101C200001F0ECF813E000207F490860FFF7A8FA04
:101C3000054606E0FFF7A4FA401B022801D903205D
:101C4000F6E67748406A00F002000028F2D12078DA
:101C500000F00400042873D100277148C06900F027
:101C6000805070B900BF6E48C06940F080506C4928
:101C7000C8610846C06900F08050009000BF00BFF6
:101C800001276A48006800F48070B0B967480068AE
:101C900040F4807065490860FFF772FA054606E077
:101CA000FFF76EFA401B642801D90320C0E65F48A5
:101CB000006800F480700028F2D000BFE0680128BE
:101CC00006D15748006A40F001005549086227E0F4
:101CD000E06858B95248006A20F001005049086293
:101CE0000846006A20F00400086219E0E068052850
:101CF0000BD14B48006A40F004004949086208468D
:101D0000006A40F0010008620AE04548006A20F0DD
:101D10000100434908620846006A20F00400086296
:101D200000BFE068A0B1FFF72BFA054609E0FFF716
:101D300027FA401B41F28831884202D9032077E616
:101D400022E03748006A00F002000028EFD012E0DD
:101D5000FFF716FA054608E0FFF712FA401B41F2BA
:101D60008831884201D9032062E62D48006A00F0DC
:101D700002000028F0D1012F05D12948C06920F0C8
:101D800080502749C86100BFE069C8B32448406853
:101D900000F00C00082860D0E069022848D100203B
:101DA00020490866FFF7ECF9054606E0FFF7E8F979
:101DB000401B022801D903203AE61948006800F0C8
:101DC00000700028F2D1206AB0F5803F07D1144896
:101DD000406820F40030A168084311494860D4E904
:101DE000080108430E49496821F4741108430C495D
:101DF000486001200B490866FFF7C2F9054607E075
:101E00003DE0FFF7BDF9401B022801D903200FE692
:101E10000348006800F000700028F2D02FE00000B6
:101E20000010024000004242800442420070004024
:101E3000002014490866FFF7A3F9054606E0FFF7FE
:101E40009FF9401B022801D90320F1E50E480068E4
:101E500000F000700028F2D111E0E069012800D103
:101E6000E6E50948466806F48031206A814204D1DB
:101E700006F47011606A814201D00120D8E500208B
:101E8000D6E50000000042420010024070B5044652
:101E900000250CB9012070BD607C20B900202074A1
:101EA000204600F05BF802206074204600F057F8EE
:101EB00018B1042060740120EDE7204601F010F80D
:101EC00018B1042060740120E5E72068406820F024
:101ED000070021684860A06828B11F48006820F00A
:101EE00001001D4908601C48001F006820F4607054
:101EF000A16808431849091F08606068401C08B1C0
:101F0000656809E00120FFF727FB05461DB904209D
:101F100060740120BFE76D1E2068806820F00F000C
:101F200040EA1540216888602068C06865F30F00AA
:101F30002168C860204600F0F0FF18B104206074EA
:101F40000120A8E70021E17301216173A173012041
:101F5000607400209FE70000306C0040704770B54F
:101F6000044600250CB9012070BD2068406820F0AF
:101F7000080021684860FFF703F9054607E0FFF70E
:101F8000FFF8401BB0F57A7F01D90320ECE7206809
:101F9000406800F008000028F1D00020E4E710B508
:101FA00004460CB9012010BD606A38B96068B0F50C
:101FB000827F00D105E00021E16102E00021216182
:101FC0006161A06AB0F5005F00D100BF94F85100D4
:101FD00028B9002084F85000204600F04BF8022079
:101FE00084F851002068006820F0400021680860F3
:101FF000A08800F48270218901F404410843A1897A
:1020000001F400610843217C01F002010843217DB5
:1020100001F001010843218B01F400710843217F85
:1020200001F0380108432021095D01F080010843D7
:10203000218D01F400510843216808600421A06942
:1020400001EA104021684860A06AB0F5005F03D142
:10205000A08D80B2216808612068C06920F400600A
:102060002168C86100206065012084F851000020CB
:1020700099E7000010B586B0044600BF314880697A
:1020800040F004002F4988610846806900F0040090
:10209000019000BF00BF00BF0846806940F0040007
:1020A00088610846806900F00400019000BF00BF0D
:1020B00000BF0846806940F00400886108468069D6
:1020C00000F00400019000BF00BF00BF0846806917
:1020D00040F0040088610846806900F00400019027
:1020E00000BF00BF00BF0846806940F4805088618F
:1020F0000846806900F48050019000BF00BF202096
:10210000029002200390012004900320059002A970
:102110000D48FEF785FE4020029002A90A48FEF70E
:102120007FFE8020029002A90748FEF779FE10206A
:1021300002900120039002A90348FEF771FE06B049
:1021400010BD0000001002400008014070B50446B8
:102150000E4615461CB1A069B0F5807F01D1012063
:1021600070BD94F8410028B9002084F84000204652
:1021700000F01FF804F108012068FEF76DFA3146FF
:10218000A2682068FEF7A4FA2946236BD4E901026D
:10219000FEF740FAA168206850F8210040F00100E5
:1021A000A268216841F82200012084F84100002043
:1021B000D6E7704770B504462546681EB0F1807FAB
:1021C00001D301200FE0681E4FF0E02148610F218C
:1021D0004FF0FF3001F088F800204FF0E0218861D7
:1021E00007200861002070BD704700002DE9F0470E
:1021F0000446206805682068C668206847694FF073
:102200000008C14605F00F08B8F1000F0AD105F02B
:10221000200038B106F0200020B1204600F0F8FE82
:10222000BDE8F087B8F1000F71D007F0010018B9D0
:1022300006F4907000286AD005F0010030B106F471
:10224000807018B1E06B40F00100E06305F004001D
:1022500030B107F0010018B1E06B40F00200E0631C
:1022600005F0020030B107F0010018B1E06B40F05A
:102270000400E06305F0080048B106F0200010B942
:1022800007F0010018B1E06B40F00800E063E06B7C
:1022900068B305F0200028B106F0200010B12046F8
:1022A00000F0B6FE20684069C0F38019E06B00F0D2
:1022B000080010B9B9F1000F22D0204600F088FEC6
:1022C0002068406900F04000B0B12068406920F00B
:1022D000400021684861606B50B11848616B4863E9
:1022E000606BFEF75DFC10B1606B416B88470CE0E2
:1022F0002046FFF779FF08E02046FFF775FF04E06E
:102300002046FFF771FF0020E06389E7FFE705F053
:10231000800030B106F0800018B1204600F046FF82
:102320007EE705F0400030B106F0400018B12046CD
:1023300000F05EFE74E700BF72E70000BD2F0008EA
:1023400010B504460CB9012010BDA06900B100E031
:1023500000BF94F8390028B9002084F838002046DE
:1023600000F028F8242084F839002068C06820F4A0
:1023700000502168C860204600F09AFE206800697D
:1023800020F49040216808612068406920F02A000C
:10239000216848612068C06840F400502168C86026
:1023A0000020E063202084F8390084F83A000020FF
:1023B000CAE7000010B586B0044628492068884264
:1023C0004AD100BF00BF2648806940F0040024497C
:1023D00088610846806900F00400019000BF00BFDA
:1023E00000BF00BF00BF0846806940F0040088615C
:1023F0000846806900F00400019000BF00BF00BFE4
:1024000000BF00BF0846806940F4804088610846EC
:10241000806900F48040019000BF00BF00BF4815F4
:10242000029002200390012004900320059002A94D
:102430000C48FEF7F5FC4FF48060029000200390FA
:1024400002A90848FEF7ECFC2520FFF71CF8032240
:1024500011462520FFF727F806B010BD00380140CF
:10246000001002400008014010B5034693F83A00FE
:1024700020282FD101B10AB9012010BD00BF93F867
:102480003800012801D10220F7E7012083F8380045
:1024900000BF99629A85DA850020D863222083F8EC
:1024A0003A0000BF002083F8380000BF1868C068F9
:1024B00040F480701C68E0601868406940F00100DA
:1024C0001C6860611868C06840F020001C68E0600B
:1024D0000020D2E70220D0E710B50446204920684A
:1024E00088423BD11F48008800F4004088BB1D484B
:1024F000008800F4804070B11B4800780A2803D09F
:1025000000201849088024E01648008840F4004064
:10251000144908801DE0144800780D2806D11148A0
:10252000008840F480400F49088012E00E4800788F
:102530000C490988C1F30D010C4A50540948008820
:10254000401C0849088008460088C72801DD002093
:102550000880012204490648FFF786FF10BD0000ED
:1025600000380140380000203A00002044020020DA
:102570000C030020704700BFFEE710B500F002F822
:1025800010BD000010B50B480B49086001140A4843
:1025900001610A480849486000210748416181609B
:1025A000C16101620A21C16000218161FEF7EEFD77
:1025B00010BD00000054004048000020801A0600B2
:1025C00020B14FF48001034A116102E04021014A29
:1025D000116170470020014001B502E00098401EE3
:1025E000009000980028F9D108BD000010B54FF008
:1025F00020401749086017484860002016490860C5
:102600004860082088600020C860086148614FF079
:102610008050886106200E49886000210C48C16006
:10262000082101611021416100218161C161416284
:102630004FF4805181620021C16201634163816373
:1026400000F00CF8044A11460148FFF77FFD10BD69
:1026500058010020040100A0A001002000B585B0B1
:1026600000BF3548806940F0200033498861084642
:10267000806900F02000009000BF00BF00BF084646
:10268000806940F0400088610846806900F04000A1
:10269000009000BF00BF00BF0846806940F0800086
:1026A00088610846806900F08000009000BF00BF8C
:1026B00000BF0846806940F48070886108468069E0
:1026C00000F48070009000BF00BF00BF0846406962
:1026D00040F4807048610846406900F480700090C2
:1026E00000BF00BF012002900390032004908814D3
:1026F000019001A91148FEF793FB4FF4006001908F
:1027000001A90E48FEF78CFB022002904CF23370B8
:10271000019001A90A48FEF783FB4FF684700190EF
:1027200001A90848FEF77CFB4020019001A903485D
:10273000FEF776FB05B000BD00100240002001400E
:10274000001401400018014010B50446072C00DDBC
:1027500010BD31480470204604EBD0714910A4EB41
:10276000410139B9F0202D4908804FF4A0702C495F
:10277000088006E04FF4A07028490880F02028491E
:102780000880362000F0DEFA2648008849F2413100
:10279000884205D1082141EA441000F0D7FA0AE046
:1027A0002048008848F25251884204D1002141EA71
:1027B000441000F0CBFA2A2000F0C4FA002000F008
:1027C000C5FA002000F0C2FA14490988491EC1F375
:1027D000072000F0BBFA11490978491EC8B200F081
:1027E000B5FA2B2000F0AEFA002000F0AFFA00207E
:1027F00000F0ACFA0A490988491EC1F3072000F02D
:10280000A5FA07490978491EC8B200F09FFA2C20A2
:1028100000F098FA00BF9BE70800002004000020A9
:10282000060000200A00002010B5FFF717FFFFF791
:10283000DDFE0120FFF7C4FE00F070FA00F008F89A
:1028400002480078FFF780FF10BD0000080000205C
:1028500010B500F025FAFE4908800846008849F2C4
:10286000413188427ED1CF2000F06CFA002000F088
:102870006DFA812000F06AFA302000F067FAED204E
:1028800000F060FA642000F061FA032000F05EFAC4
:10289000122000F05BFA812000F058FAE82000F0E6
:1028A00051FA852000F052FA102000F04FFA7820FB
:1028B00000F04CFACB2000F045FA392000F046FA3F
:1028C0002C2000F043FA002000F040FA342000F001
:1028D0003DFA062000F03AFAF72000F033FA202003
:1028E00000F034FAEA2000F02DFA002000F02EFA71
:1028F000002000F02BFAB12000F024FA002000F0B4
:1029000025FA1B2000F022FAB62000F01BFA0A205C
:1029100000F01CFAA22000F019FAC02000F012FA10
:10292000352000F013FAC12000F00CFA112000F05D
:102930000DFAC52000F006FA452000F007FA452000
:1029400000F004FAC72000F0FDF9A22000F0FEF923
:10295000F22000F0F7F9002000F0F8F9262000F04E
:10296000F1F900E096E0012000F0F0F9E02000F03D
:10297000E9F90F2000F0EAF9262000F0E7F9242019
:1029800000F0E4F90B2000F0E1F90E2000F0DEF990
:10299000092000F0DBF9542000F0D8F9A82000F05D
:1029A000D5F9462000F0D2F90C2000F0CFF917201D
:1029B00000F0CCF9092000F0C9F90F2000F0C6F9A9
:1029C000072000F0C3F9002000F0C0F9E12000F07A
:1029D000B9F9002000F0BAF9192000F0B7F91B206E
:1029E00000F0B4F9042000F0B1F9102000F0AEF9C5
:1029F000072000F0ABF92A2000F0A8F9472000F0EA
:102A0000A5F9392000F0A2F9032000F09FF9062073
:102A100000F09CF9062000F099F9302000F096F9BA
:102A2000382000F093F90F2000F090F9362000F0E4
:102A300089F9C82000F08AF92A2000F083F90020E3
:102A400000F084F9002000F081F9002000F07EF908
:102A5000EF2000F07BF92B2000F074F9002000F04B
:102A600075F9002000F072F9012000F06FF93F20A5
:102A700000F06CF93A2000F065F9552000F066F995
:102A8000112000F05FF97348FFF7A6FD292000F040
:102A900059F901E16E48008848F252518842F8D154
:102AA000CF2000F04FF9002000F050F9C12000F0D5
:102AB0004DF9302000F04AF9ED2000F043F9642090
:102AC00000F044F9032000F041F9122000F03EF933
:102AD000812000F03BF9E82000F034F9852000F077
:102AE00035F9102000F032F9782000F02FF9CB20D2
:102AF00000F028F9392000F029F92C2000F026F9FF
:102B0000002000F023F9342000F020F9022000F02A
:102B10001DF9F72000F016F9202000F017F9EA203F
:102B200000F010F9002000F011F9002000F00EF97B
:102B3000C02000F007F9212000F008F9C12000F0C2
:102B400001F9112000F002F9C52000F0FBF82D205A
:102B500000F0FCF8332000F0F9F8362000F0F2F82D
:102B6000002000F0F3F83A2000F0ECF8552000F0D7
:102B7000EDF8B12000F0E6F8002000F0E7F81720AB
:102B800000F0E4F8B62000F0DDF80A2000F0DEF8EE
:102B9000A22000F0DBF8F62000F0D4F8012000F0CD
:102BA000D5F8302000F0D2F8F22000F0CBF8002069
:102BB00000F0CCF8262000F0C5F8012000F0C6F89F
:102BC000E02000F0BFF8D02000F0C0F8002000F0B6
:102BD000BDF8022000F0BAF8072000F0B7F80B208B
:102BE00000F0B4F81A2000F0B1F8312000F0AEF88F
:102BF000542000F0ABF8402000F0A8F8292000F0A5
:102C0000A5F8122000F0A2F8122000F09FF8122080
:102C100000F09CF8172000F099F8E12000F092F8FD
:102C2000D02000F093F8002000F090F8022000F08F
:102C30008DF8072000F08AF8052000F087F825209D
:102C400000F084F82D2000F081F8442004E000001A
:102C50000A000020FCBF020000F078F8452000F0D8
:102C600075F81C2000F072F8182000F06FF816209C
:102C700000F06CF81C2000F069F81D2000F066F8E8
:102C8000112000F05FF80548FFF7A6FC292000F0AE
:102C900059F82C2000F056F810BD0000FCBF0200CF
:102CA00010B50024042000F04DF800BF4FF0DA40CA
:102CB000008800BF4FF0DA40008800F02BF804468F
:102CC0004FF6FF7000EA042400F024F8044348F2B1
:102CD0005250844201D1204610BDD32000F032F87A
:102CE00000BF4FF0DA40008800BF4FF0DA400088A4
:102CF00000F010F804464FF6FF7000EA042400F0DC
:102D000009F8044349F24130844201D12046E3E707
:102D10000020E1E74FF0DA400088704710B54FF02F
:102D200000600749086140F6FF20FFF755FC4FF4AB
:102D300000600349086140F6FF20FFF74DFC10BD1D
:102D4000002001404FF0D841088070474FF0DA4131
:102D50000880704700B585B000BF2448806940F006
:102D60000800224988610846806900F00800009048
:102D700000BF00BF00BF0846806940F008008861BE
:102D80000846806900F00800009000BF00BF00BF47
:102D90000846806940F0080088610846806900F0B4
:102DA0000800009000BF00BF202001900120029089
:102DB00003900320049001A90D48FEF731F801208B
:102DC000019001A90A48FEF72BF80220019001A901
:102DD0000748FEF725F8202005491031086001203A
:102DE00008600220086005B000BD0000001002402D
:102DF000000C014000BFFEE77047704708B5084966
:102E00000968C9084FF47A72B1FBF2F141430091AD
:102E100000BF00BF00994A1E00920029F9D108BDE9
:102E20000000002000B591B022482349086001202D
:102E300022490860FEF78AFB00BF2148C06940F0C4
:102E400000601F49C8610846C06900F0006000903A
:102E500000BF00BF0420079000200E9001200A90C0
:102E600000200D9007A8FEF7DFFD01200190000271
:102E7000029001A8FEF70AFC00BF1148006A40F06A
:102E800001000F49086200BF01200C4908600A4890
:102E9000FFF765F84FF0FF30074948604FF4807145
:102EA00005488160FEF7F2FF10B106A0FDF7B2F908
:102EB00011B000BD00280040300200203C04424216
:102EC000001002400A0D2052544320CAB1D6D3B399
:102ED000F5CABCBBAFCAA7B0DC200D0A00000000D9
:102EE00070B504460025FEF74BF9054607E0FEF7EE
:102EF00047F9401BB0F57A7F01D9032070BD2068E7
:102F0000406800F020000028F1D02068406840F0C0
:102F10001000216848600020F0E770B504460025E5
:102F20002068406820F0100021684860FEF728F90A
:102F3000054607E0FEF724F9401BB0F57A7F01D97A
:102F4000032070BD2068406800F020000028F1D008
:102F50000020F6E710B5144814490860082113480A
:102F6000C1610021816001214161022101610021D3
:102F700081620721C1620021C16001624FF40071CA
:102F80008161002141624FF482700849486008461F
:102F9000FFF705F805480068006840F04000034965
:102FA0000968086010BD0000003001409C0000204E
:102FB000704710B5FEF720FA10BD704770B5054692
:102FC0006C6A0020E085E0842046FFF70DF970BDB3
:102FD0000168C96821F490710268D160016849698B
:102FE00021F0010102685161202180F83A107047F8
:102FF00010B504462068C06820F040002168C86011
:10300000202084F839002046FFF7B4FA002010BDD4
:1030100070B5044694F83A00222847D1A068B0F56C
:10302000805F0CD1206950B90025A66A20684068ED
:10303000C0F308003080A06A801CA06215E0A56A79
:103040000026A068B0F5805F03D0A06828B9206989
:1030500018B920684068287004E02068406800F0D3
:103060007F002870A06A401CA062E08D401E80B2E4
:10307000E085C8B92068C06820F020002168C860D9
:103080002068C06820F480702168C86020684069AA
:1030900020F0010021684861202084F83A00204691
:1030A000FFF71AFA002070BD0020FCE70220FAE7C3
:1030B00070B504462168096921F44051E268114362
:1030C000226811612269A1681143626941EA02051F
:1030D0002168C96841F20C62914329432268D1609A
:1030E0002168496921F44071A26911432268516144
:1030F0002D4A2168914202D1FEF73CFC01E0FEF727
:1031000029FC00EBC00101EB001162689200B1FBE9
:10311000F2F100EBC00202EB001263689B00B2FB0D
:10312000F3F26423B2FBF3F202EBC20303EB0212ED
:10313000A1EB8201322202EB01116422B1FBF2F118
:1031400001F0F00100EBC00202EB001263689B008B
:10315000B2FBF3F26423B2FBF3F201EB021200EBD9
:10316000C00101EB001163689B00B1FBF3F100EBC0
:10317000C00303EB00136668B600B3FBF6F36426E6
:10318000B3FBF6F303EBC30606EB0313A1EB8301DA
:10319000322303EB01116423B1FBF3F101F00F01C2
:1031A00011442268916070BD00380140014691F8D9
:1031B0003900212828D18868B0F5805F0BD10869D3
:1031C00048B90A6A1088C0F308000B685860086A9A
:1031D000801C086205E00B6A581C086218780B68AE
:1031E0005860C88C401E80B2C88458B90868C0684E
:1031F00020F080000B68D8600868C06840F040008C
:103200000B68D860002070470220FCE710B5024828
:10321000FEF7ECFF10BD00000C03002000BFFEE72E
:1032200000B585B000BF2948806940F0800027497B
:1032300088610846806900F08000009000BF00BFF0
:1032400000BF0846806940F4807088610846806944
:1032500000F48070009000BF00BF80200190032028
:1032600004900120029001A91948FDF7D9FD4FF4FF
:103270000060019001A91748FDF7D2FD4FF480606E
:103280000190032004900120029001A91148FDF74C
:10329000C7FD4020019003200490002002900120EF
:1032A000039001A90B48FDF7BBFD4FF08060094971
:1032B000103108604014019000200290012003901A
:1032C00001A90448FDF7ACFD05B000BD00100240A7
:1032D00000200140001C014002480068C0F30220A9
:1032E000704700000CED00E010B5002804DB0A0771
:1032F000130E054A135406E00A07140E034A00F0A1
:103300000F031B1FD45410BD00E400E018ED00E0D3
:1033100030380A2801D2012070470020704700BFD2
:10332000704700000149086070470000300000202D
:1033300010B504464FF47A7104FB01F000F002F876
:1033400010BD000070B5034600224FF0E0267569FD
:103350000D4E366803FB06F44FF0E026B16910E02D
:103360004FF0E026B06988420BD0884202D20E1A94
:10337000324402E02E1A0E4432440146A24200D3E7
:1033800000E0EDE700BF70BD3000002000BF054A3F
:10339000126802F04002002AF9D0C2B2014B1B1D94
:1033A0001A60704700380140FEF732F84FF4E01021
:1033B00000F038F84820FFF7B5FF4FF4E13000F097
:1033C00065F8FFF7C7FCFDF7A9F8FDF7DBF8FFF795
:1033D000D4F8FFF7BFFDFDF79DF9FFF725FAFFF7DA
:1033E0001FFFFDF775F8FFF71DFD07A0FCF712FFA3
:1033F00009E000BF20210A48FDF7B2FE00BF4FF4EC
:10340000FA70FFF795FFF4E70D0A6D61696E20779A
:1034100068696C652831292073746172740D0A0023
:10342000000C014030B58FB005460124282105A8C5
:10343000FCF798FF14216846FCF794FF01200590E3
:10344000000406900020079002200C90C1030D910B
:103450000E9505A8FEF7E8FA04460CB100BFFEE79A
:103460000F20009002200190002002904FF4806015
:1034700003900020049002216846FEF79FF904465D
:103480000CB100BFFEE70FB030BD000010B5044620
:1034900009480A4908600846446000218160C1600B
:1034A000016181610C214161FEF74AFF012204495B
:1034B0000248FEF7D9FF10BD003801400C03002080
:1034C0003A00002000000000000000000102030498
:1034D00006070809000000000102030400000000C4
:1034E00000000000000000000000000000000018C4
:1034F00018181818180800081800000000000034F8
:10350000242424000000000000000000000000004F
:1035100016247F2424247E242400000000000008B8
:103520003E6848681C1612127C10100000000061F2
:10353000D296740810162949C60000000000000049
:103540003C646438724ACE467F00000000000018D8
:10355000181818000000000000000000000000041F
:10356000081810303030301010180C040000002003
:103570001008080C0404040C0818102000000008AF
:103580000A341C6A0800000000000000000000006F
:1035900000001818187F181818000000000000001C
:1035A00000000000000000181808300000000000B3
:1035B00000000000003C00000000000000000000CF
:1035C00000000000000000181800000000000002C9
:1035D00006040C0808101020204000000000000025
:1035E0003C6642475B7342663C00000000000000FE
:1035F00018784808080808087E000000000000004D
:103600003C460606040810207E0000000000000072
:103610007C0606043C0202067C000000000000005C
:103620000C1C14246444FF0404000000000000008B
:103630007E6060607E0202067C00000000000000E8
:103640001E306048764242623C00000000000000EC
:103650007E0206040C081810300000000000000074
:103660003C6242361C6642423C0000000000000002
:103670003C664242661A0204780000000000000026
:1036800000001818000000181800000000000000DA
:103690000000181800000018180830000000000092
:1036A000000004183060100C06000000000000004C
:1036B000000000007E007E0000000000000000000E
:1036C0000000301804060C1020000000000000303C
:1036D0001C06060618100010100000000000001C58
:1036E000224141DDB5A5A5AF94C0403C00000000DB
:1036F000181C342426627E43C10000000000000034
:103700007C4642467C4242427C00000000000000B1
:103710001E204040404040603E000000000000008D
:103720007C464243434342467800000000000000CC
:103730007E6060607E6060607E00000000000000CF
:103740007E6060607E6060606000000000000000DD
:103750001E604040CE4242623E0000000000000079
:10376000424242427E4242424200000000000000CB
:103770007E181818181818187E00000000000000A5
:103780007C040404040404447800000000000000E9
:103790004244485070584C44420000000000000071
:1037A00020202020202020203E00000000000000DB
:1037B0006266675F5B5BC1C1C10000000000000082
:1037C000626272525A4A4E464600000000000000F3
:1037D0003C6243C3C3C343623C00000000000000DE
:1037E0007C46424246784040400000000000000015
:1037F0003C6243C3C3C343623C180F000000000097
:103800007C6662667C6C64666200000000000000FA
:103810003E6040601C0602027C00000000000000C8
:103820007F18181818181818180000000000000059
:1038300042424242424242623C000000000000001C
:10384000C14342622624341C18000000000000001E
:10385000C1C141495B5B7666660000000000000064
:1038600043663418181C2466C300000000000000E2
:10387000C14266341C18181818000000000000002F
:103880007E02040C181020607E0000000000001C66
:1038900010101010101010101010101C000000401C
:1038A0002020101008080C04060200000000003C54
:1038B0000C0C0C0C0C0C0C0C0C0C0C3C0000000048
:1038C000181C24620000000000000000000000003E
:1038D0000000000000000000000000FF00000020C9
:1038E00010000000000000000000000000000000C8
:1038F00000003C06023E42467A0000000000004004
:1039000040405C62424242427C00000000000000F5
:1039100000001E20604060203E0000000000000209
:1039200002023E62424242663A000000000000008D
:1039300000003C62427E40603E0000000000000F3C
:103940001810107E10101010100000000000000071
:1039500000003F66426658403E43423C0000004043
:1039600040405C62424242424200000000000018B7
:1039700018007808080808087E000000000000040D
:103980000C007C040404040404040C7800000060AF
:103990006060626C7870686462000000000000780B
:1039A00008080808080808087E0000000000000059
:1039B0000000764B4B4B4B4B4B00000000000000CF
:1039C00000005C62424242424200000000000000EF
:1039D00000003C62424342623C00000000000000E4
:1039E00000005C62424242427C40404000000000D5
:1039F00000003E62424242663A02020200000000BB
:103A000000006E72636060606000000000000000F3
:103A100000003E20203C06027C0000000000000068
:103A20001010FE10101010101E000000000000000A
:103A300000004242424242663A000000000000009C
:103A40000000434266243418180000000000000003
:103A50000000C1C15B5A5E66660000000000000005
:103A6000000062261C181C266200000000000000F6
:103A7000000043426624341C181830E000000000A7
:103A800000007E060C1810207E0000000000000ED2
:103A900018101010307010101010180E00000808C8
:103AA0000808080808080808080808080000003086
:103AB000180808080C0E0808080818300000000054
:103AC00000000000714B0600000000000000000034
:103AD00000000000000000000000000000000000E6
:103AE00000000000000000000000000000000000D6
:103AF00000000000000000000000000000000000C6
:103B0000000000000000038001800180018001802E
:103B1000018001800180018001800000000003C05D
:103B200003C00000000000000000000000000000D2
:103B30000000000000000E700E700E700C300000CF
:103B40000000000000000000000000000000000075
:103B50000000000000000000000000000000000065
:103B600000000000000000000618063806307FFE46
:103B70000C300C300C300C307FFE0C601C60186078
:103B800018600000000000000000000000000000BD
:103B90000000000000C000C00FF83CC831C03180F8
:103BA0003D801F8003F001F8031C030C031C3FF849
:103BB0003FE00700060000000000000000000000D9
:103BC000000000001C007E0E630C631863307E60F2
:103BD00000C001800300077C0EE61CC618C630C674
:103BE000607C0000000000000000000000000000F9
:103BF0000000000000000FE01CF0387038701C60FE
:103C00001FC00F003F8C71CC60EC607C70383CFCB6
:103C10001FCE0000000000000000000000000000B7
:103C200000000000000003C001800180018000004E
:103C30000000000000000000000000000000000084
:103C40000000000000000000000000000000000074
:103C500000000000003000E001C001800300070008
:103C6000060006000E000E000E000E000600070003
:103C70000300038001C000E00030000000000000ED
:103C8000000000000C0006000380018001C000E07D
:103C9000006000600070007000700060006000E074
:103CA00000C00180038006000C000000000000003E
:103CB000000000000000018011881DB803C007E06B
:103CC0003DBC0188018000000000000000000000F1
:103CD00000000000000000000000000000000000E4
:103CE00000000000000000000000000001800180D2
:103CF0000180018001807FFE0180018001800180C0
:103D000000000000000000000000000000000000B3
:103D100000000000000000000000000000000000A3
:103D200000000000000000000000000003C003C00D
:103D300001C001C003801F0000000000000000005F
:103D40000000000000000000000000000000000073
:103D50000000000000000FF0000000000000000064
:103D60000000000000000000000000000000000053
:103D70000000000000000000000000000000000043
:103D800000000000000000000000000003C003C0AD
:103D900003C0000000000000000000000000000060
:103DA000000000000000001800380030006000E053
:103DB00000C001C001800300030006000E000C00DB
:103DC0001C0018003000000000000000000000008F
:103DD00000000000000001800FF01C38381C301C6F
:103DE000707E70EE738E7E0E7C0C300C381C1E784C
:103DF0000FE00000000000000000000000000000D4
:103E0000000000000000000007C01FC039C001C052
:103E100001C001C001C001C001C001C001C03FFC20
:103E20003FFC000000000000000000000000000057
:103E300000000000000003801FF018380038001850
:103E400000380038007001E0038007001C003FFCD0
:103E50003FFC000000000000000000000000000027
:103E600000000000000007801FF000380038003814
:103E7000003007E007F00038001C001C001820F894
:103E80003FE0000000000000000000000000000013
:103E9000000000000000000000F001B00330073017
:103EA0000E301C30383070307FFE7FFE0030003026
:103EB00000300000000000000000000000000000D2
:103EC00000000000000000001FF818001800180093
:103ED00018001FE000F8001C001C001C003800F057
:103EE0001FC00000000000000000000000000000F3
:103EF000000000000000000003F80F001C00180084
:103F0000300037F83C3C300C300C380C381C1E3874
:103F10000FF00000000000000000000000000000A2
:103F200000000000000000003FFC001C00180038EA
:103F30000070006000E001C00180038007000600FF
:103F40000E00000000000000000000000000000063
:103F500000000000000003C01FF8381C381C381C8B
:103F60001C380FF007F01C78381C300C381C3C381B
:103F70000FF0000000000000000000000000000042
:103F800000000000000003801FF03838301C701C57
:103F9000700C380C1FFC0FCC001C001800701FE0C8
:103FA0001F80000000000000000000000000000072
:103FB000000000000000000000000000000003C03E
:103FC00003C00180000000000000000003C003C027
:103FD00003C000000000000000000000000000001E
:103FE000000000000000000000000000000003C00E
:103FF00003C00180000000000000000003C003C0F7
:1040000001C001C003800F0000000000000000009C
:10401000000000000000000000000000003800F078
:1040200001C007001E0038000E00078001C00070AC
:104030000030000000000000000000000000000050
:104040000000000000000000000000000000000070
:1040500000003FFC000000003FFC3FFC00000000AF
:104060000000000000000000000000000000000050
:104070000000000000000000000000001C000F0015
:10408000038001E00078001C007001E003800E0056
:104090000C00000000000000000000000000000014
:1040A0000000000000000FC000F0003800380038A9
:1040B000003803F0038003000300000000000780C5
:1040C0000780000000000000000000000000000069
:1040D0000000000000E007F80C0C18063006700322
:1040E00063F36633C673CC63CC62CC66CCE6C7FCA4
:1040F000E0006000700038101FF0000000000000B9
:10410000000000000000000003C007E006E00E70A1
:104110000E700C301C3818183FFC3FFC700E600EFF
:10412000E0070000000000000000000000000000A8
:1041300000000000000000003FF03838381C381C38
:1041400038383FF03FF8381C380C380C381C3FF832
:104150003FE0000000000000000000000000000040
:1041600000000000000000E007FC1E0438003800DA
:104170003000700070007000300038003C001F9C60
:1041800007FC00000000000000000000000000002C
:1041900000000000000000003FF03078301C300CC0
:1041A000300E300E300E300E300E301C30383FF0F6
:1041B0003FC0000000000000000000000000000000
:1041C00000000000000000001FF818001800180090
:1041D00018001FF81FF818001800180018001FF822
:1041E0001FF80000000000000000000000000000B8
:1041F00000000000000000001FF818001800180060
:1042000018001FF81FF818001800180018001800F0
:104210001800000000000000000000000000000086
:1042200000000000000000F007FC1E043800300011
:104230007000700070FC700C700C300C380C1F1C7F
:1042400007FC00000000000000000000000000006B
:104250000000000000000000300C300C300C300C6E
:10426000300C3FFC3FFC300C300C300C300C300C70
:10427000300C000000000000000000000000000002
:1042800000000000000000003FFC01800180018070
:1042900001800180018001800180018001803FFC5C
:1042A0003FFC0000000000000000000000000000D3
:1042B00000000000000000001FF00030003000305F
:1042C00000300030003000300030003000701DE061
:1042D0001FC00000000000000000000000000000FF
:1042E0000000000000000000381C387038E039C0C1
:1042F0003B803F003F003B8039C038E038703838A1
:10430000381C000000000000000000000000000059
:1043100000000000000000001C001C001C001C002D
:104320001C001C001C001C001C001C001C001FFCAE
:104330001FFC000000000000000000000000000062
:104340000000000000000000381C7C3C6C3E6E6EDB
:10435000666E66CE63C6638661866006600660062A
:1043600060060000000000000000000000000000E7
:1043700000000000000000003C0C3C0C3E0C360C21
:10438000330C338C318C31CC30EC306C307C303CA5
:10439000301C0000000000000000000000000000D1
:1043A00000000000000001C00FF81C3C381C700E1B
:1043B000700E60066006700E700E700C381C1E7851
:1043C0000FE00000000000000000000000000000FE
:1043D00000000000000000003FF0383C381C380CA2
:1043E000380C381C38783FE0380038003800380086
:1043F0003800000000000000000000000000000085
:1044000000000000000001C00FF81C3C381C700EBA
:10441000700E60066006700E700E700C381C1E78F0
:104420000FE0018001C000FF003C00000000000020
:1044300000000000000000003FF03838381838183D
:10444000383838F03FC038E0387038383838381CE1
:10445000380E000000000000000000000000000016
:1044600000000000000001E00FF8380038003800BC
:104470003C001F8003F00078001C001C001C3878F2
:104480003FE000000000000000000000000000000D
:1044900000000000000000007FFE0180018001801C
:1044A0000180018001800180018001800180018004
:1044B000018000000000000000000000000000007B
:1044C0000000000000000000300C300C300C300CFC
:1044D000300C300C300C300C300C300C381C1C38CC
:1044E0000FF00000000000000000000000000000CD
:1044F0000000000000000000E006700E700E381C86
:10450000381C1C181C380C300E70066007E003C005
:1045100003C00000000000000000000000000000D8
:1045200000000000000000006006600660066006F3
:104530006186638673C673CE766C366C3C3C3C3CBD
:10454000381C000000000000000000000000000017
:104550000000000000000000301C38181C380E70ED
:1045600007E003C003C007E00E701C381838381C81
:10457000700E0000000000000000000000000000BD
:104580000000000000000000700E700C381C1C3889
:104590000E70066007E003C0018001800180018089
:1045A000018000000000000000000000000000008A
:1045B00000000000000000003FFC001C00380070FC
:1045C00000E001C0038007000E000C0018003FFC53
:1045D0003FFC0000000000000000000000000000A0
:1045E0000000000007F007F00600060006000600C5
:1045F000060006000600060006000600060006008B
:10460000060006000600060007F00000000000009B
:1046100000000000000018001C000C00060007004D
:1046200003000380018001C000C000600070003002
:1046300000380018000C000000000000000000001E
:10464000000000000FE00FE000600060006000600C
:10465000006000600060006000600060006000605A
:1046600000600060006000600FE0000000000000DB
:10467000000000000000000003C006C006600C300F
:104680001818301C000000000000000000000000AE
:10469000000000000000000000000000000000001A
:1046A000000000000000000000000000000000000A
:1046B00000000000000000000000000000000000FA
:1046C0000000000000000000FFFF000000000000EC
:1046D0000000000000001E00038000000000000039
:1046E00000000000000000000000000000000000CA
:1046F00000000000000000000000000000000000BA
:1047000000000000000000000000000000001FF09A
:104710001038001C001C0FFC1C1C381C381C3CFCF6
:104720001FDC00000000000000000000000000008E
:1047300000000000000038003800380038003BF866
:104740003E1C3C1C380C380C380C380C381C3C789F
:104750001FE000000000000000000000000000005A
:10476000000000000000000000000000000007F84A
:104770000E001C0038003800380038001C000F18EC
:1047800007F800000000000000000000000000002A
:10479000000000000000001C001C001C001C0FFC9E
:1047A0001C1C381C301C301C301C301C383C1CFCC1
:1047B0000F9C00000000000000000000000000004E
:1047C00000000000000000000000000000000FF0EA
:1047D0001C38381C300C3FFC3000300038001E0CF8
:1047E00007FC0000000000000000000000000000C6
:1047F00000000000003C01FE0380030003000300F2
:104800007FFC7FFC030003000300030003000300A0
:104810000300000000000000000000000000000095
:1048200000000000000000000000000000000FFE7B
:104830001C383818381818381FF03B8030003FF00B
:104840001FFC300E700E381C1FF800000000000026
:1048500000000000000038003800380038003BF845
:104860003E383C1C381C381C381C381C381C381C82
:10487000381C0000000000000000000000000000E4
:1048800000000000018003C003C0000000001FC042
:1048900001C001C001C001C001C001C001C001C010
:1048A0003FFC0000000000000000000000000000CD
:1048B00000000000002000700070000000003FF0C9
:1048C0000070007000700070007000700070007068
:1048D00000700070007020E03FC000000000000089
:1048E0000000000000001800180018001800183C14
:1048F000187018E01B801F001B8019E01870183812
:10490000181C000000000000000000000000000073
:104910000000000000001FC001C001C001C001C0B4
:1049200001C001C001C001C001C001C001C001C07F
:104930003FFC00000000000000000000000000003C
:1049400000000000000000000000000000006F3CBC
:1049500079EE71CE718E718E718E718E718E718EB7
:10496000718E000000000000000000000000000048
:1049700000000000000000000000000000003BF804
:104980003E383C1C381C381C381C381C381C381C61
:10499000381C0000000000000000000000000000C3
:1049A00000000000000000000000000000000FF008
:1049B0001C3C381C700E700E700E700C381C1E786B
:1049C0000FE00000000000000000000000000000F8
:1049D00000000000000000000000000000003BF8A4
:1049E0003E1C3C1C380C380C380C380C381C3C78FD
:1049F0003FE03800380038003800000000000000B8
:104A000000000000000000000000000000000FFC9B
:104A10001C1C381C301C301C301C301C383C1CFC4E
:104A20000F9C001C001C001C001C0000000000006B
:104A3000000000000000000000000000000019F865
:104A40001F1C1C0C180E1800180018001800180065
:104A5000180000000000000000000000000000003E
:104A600000000000000000000000000000000FF83F
:104A70001C0018001E000FC001F80018001818389C
:104A80001FF0000000000000000000000000000017
:104A900000000000000000000600060006007FFC89
:104AA0000600060006000600060006000700078450
:104AB00001FC0000000000000000000000000000F9
:104AC0000000000000000000000000000000381C92
:104AD000381C381C381C381C381C381C383C1CFC52
:104AE0000FDC0000000000000000000000000000DB
:104AF0000000000000000000000000000000700C3A
:104B0000381C38181C380C300E70066007E003C0E3
:104B100003C00000000000000000000000000000D2
:104B2000000000000000000000000000000060061F
:104B300060066186738E73CC33CC366C366C3C3C2D
:104B40003C380000000000000000000000000000F1
:104B50000000000000000000000000000000381C01
:104B60001C380E7007E003C003C007E00E701C384D
:104B7000381E0000000000000000000000000000DF
:104B80000000000000000000000000000000700CA9
:104B9000381C38181C380C300E70066007E003C053
:104BA00003C0038007000E007C000000000000002E
:104BB00000000000000000000000000000001FF8DE
:104BC0000038007000E001C0038007000C001FFCEB
:104BD0003FFC00000000000000000000000000009A
:104BE00000000000007801F8038003800380038048
:104BF000038003003F003E00030003800380038026
:104C000003800380038001C000F800000000000062
:104C1000018001800180018001800180018001808C
:104C2000018001800180018001800180018001807C
:104C300001800180018001800180000000000000EF
:104C4000000000001E001F80018001C001C001C0E3
:104C500001C000C000FC007C00C001C001C001C058
:104C600001C001C001C003801F000000000000005F
:104C70000000000000000000000000000000000034
:104C800000001C003F0671CE60FC00000000000028
:104C90000000000000000000000000000000000014
:104CA0000000000000000000000000000000000004
:104CB00000000000000000000000000000000000F4
:104CC00000000000000000000000000000000000E4
:104CD00000000000000000000000000000000000D4
:104CE00000000000000000000000000000000000C4
:104CF00000000000000000000000000000000000B4
:104D00000000000000000000000000000000003C67
:104D100000003C00003C00003C00003C00003C0067
:104D2000003C00003C00003C00003C00003C000057
:104D30003C00003C00003C00000000000000003C83
:104D400000007E00003C00000000000000000000A9
:104D50000000000000000000000000000000000053
:104D6000000000000000000000000000000003C37D
:104D7000E003C3E003C3C003C3C003C3C003C3C095
:104D800003C1C0000000000000000000000000009F
:104D90000000000000000000000000000000000013
:104DA0000000000000000000000000000000000003
:104DB00000000000000000000000000000000000F3
:104DC00000000000000000000000000000000000E3
:104DD0000000000001E0E001C0E001C0E001C0E02F
:104DE0003FFFFE3FFFFE03C1C00381C00381C0033C
:104DF00081C07FFFFC7FFFFC0783800703800703E0
:104E0000800703800707800000000000000000000A
:104E10000000000000000000000000000000000092
:104E20000000000000000000000000000700000F6C
:104E300000000E0001FFF007FFF01F0E001E1E0015
:104E40001E1C001E1C000FDC0007FC0000FF800081
:104E50003FF00038F800387800783C007078307106
:104E6000F83FFFE01FFF0000E00000E00000E0006E
:104E70000000000000000000000000000000000032
:104E800000000000000000000000000000000F8093
:104E90000F3FE01E78703C7070707070E07071C0F1
:104EA0003FE3801FC700000E00001C0000780000D8
:104EB000F0F001E7FC03CF0E078E0E0F0E0E1E0E54
:104EC0000E3C07BC7003F80000000000000000006A
:104ED00000000000000000000000000000000000D2
:104EE00000000000000000000000000000000000C2
:104EF0000001FF0007FF800F03C00F03C00F03C0B6
:104F00000F0780079F0003FE0003F0000FF83C3EF0
:104F10007C3C3C1F3C780FF87807F87C01F03E039E
:104F2000F81FFFFC07FE1F0000000000000000004B
:104F30000000000000000000000000000000000071
:104F40000000000000000000000000000000003E23
:104F500000003C00003C00003C00003C00003C0025
:104F6000003C000000000000000000000000000005
:104F70000000000000000000000000000000000031
:104F80000000000000000000000000000000000021
:104F90000000000000000000000000000000000011
:104FA0000000000000000000000000000080000180
:104FB000C0000780000F00001E00003C00007800C9
:104FC00000F00000E00001E00001E00001C000038B
:104FD000C00003C00001C00001E00001E00000F0DB
:104FE0000000F000007800003C00001E00000F00F0
:104FF0000007C00001C00000000000000000000029
:10500000000000000000000000000000000003C0DD
:105010000001E00000F000007C00003E00001E00E7
:10502000000F000007800007800003800003C0001D
:1050300003C00003C00003C0000380000780000716
:1050400080000F00001E00003C0000780000F0000F
:1050500001E00003800000000000000000000000EC
:105060000000000000000000000000000000001C24
:1050700000001C000018000F18F007DBE0007F00A4
:1050800000FF0007DBE00E1870001800001C000095
:105090001C000000000000000000000000000000F4
:1050A0000000000000000000000000000000000000
:1050B00000000000000000000000000000000000F0
:1050C00000000000000000000000000000000000E0
:1050D00000000000000000000000000000003C0094
:1050E000003C00003C00003C00003C00003C003F55
:1050F000FFFC3FFFFC003C00003C00003C00003C8B
:1051000000003C0000000000000000000000000063
:10511000000000000000000000000000000000008F
:10512000000000000000000000000000000000007F
:10513000000000000000000000000000000000006F
:10514000000000000000000000000000000000005F
:105150000000000000000000000000007C00007E55
:1051600000007E00003E00001E00003C0000F80031
:1051700007E0000400000000000000000000000044
:10518000000000000000000000000000000000001F
:10519000000000000000000000000000000000000F
:1051A00000000000000000000000000000000003FC
:1051B000FFE003FFE000000000000000000000002E
:1051C00000000000000000000000000000000000DF
:1051D00000000000000000000000000000000000CF
:1051E00000000000000000000000000000000000BF
:1051F00000000000000000000000000000000000AF
:10520000000000000000000000000000000000009E
:105210000000000000000000000000007C0000FE14
:105220000000FE00007E0000000000000000000002
:10523000000000000000000000000000000000006E
:10524000000000000000000000000000000000005E
:10525000780000F00000E00001E00003C0000380DF
:10526000000780000F00000E00001E00003C000040
:10527000380000700000F00000E00001C00003C032
:10528000000780000700000F00001E00001C000047
:10529000000000000000000000000000000000000E
:1052A00000000000000000000000000000000000FE
:1052B0000000000001FFC007FFE00F00F01E0078B3
:1052C0001E003C3C00FC3C07FC3C1FBC3C7C1C3DE5
:1052D000F03C3FC03C3F003C1E00381E00780F8071
:1052E000F007FFE001FF8000000000000000000068
:1052F00000000000000000000000000000000000AE
:10530000000000000000000000000000000000009D
:1053100000000000007E0003FE001FDE000E1E00E5
:10532000001E00001E00001E00001E00001E0000E7
:105330001E00001E00001E00001E00001E00001EB9
:10534000000FFFF80FFFF800000000000000000051
:10535000000000000000000000000000000000004D
:10536000000000000000000000000000000000003D
:105370000000000003FF800FFFE00E01F00000F0CE
:105380000000F00000F00000F00001E00003C000A9
:105390000F80003E00007C0001F00003C0000F8081
:1053A000001FFFFC1FFFFC000000000000000000C9
:1053B00000000000000000000000000000000000ED
:1053C00000000000000000000000000000000000DD
:1053D000000000000FFF800FFFE00001E00000F080
:1053E0000000F00001E00003C001FF0001FFC00069
:1053F00003F00000780000780000780000780001D9
:10540000F00FFFC00FFF00000000000000000000D0
:10541000000000000000000000000000000000008C
:10542000000000000000000000000000000000007C
:1054300000000000000FC0001FC0003FC0007BC084
:1054400000F3C001E3C003C3C00783C00F03C01C47
:1054500003C03803C07FFFFE7FFFFE0003C00003D0
:10546000C00003C00003C0000000000000000000F6
:10547000000000000000000000000000000000002C
:10548000000000000000000000000000000000001C
:10549000000000000FFFE00FFFE00F00000F000012
:1054A0000F00000F00000F00000FFF800FFFE00053
:1054B00000F00000780000780000780000F00003A1
:1054C000E00FFFC00FFE0000000000000000000021
:1054D00000000000000000000000000000000000CC
:1054E00000000000000000000000000000000000BC
:1054F00000000000003FF001FFF003E00007800023
:105500000F00001E00001E1F001FFFE01FC1F81E3D
:1055100000781E003C1E003C1E003C0F00780F80EF
:10552000F807FFE001FF800000000000000000001D
:10553000000000000000000000000000000000006B
:10554000000000000000000000000000000000005B
:10555000000000001FFFFC1FFFFC0000780000F0AF
:105560000000E00001E00003C0000780000F000021
:105570000F00001E00003C0000780000F00001F069
:105580000001E00003C00000000000000000000077
:10559000000000000000000000000000000000000B
:1055A00000000000000000000000000000000000FB
:1055B0000000000003FFE00FE3F00F00781E00780A
:1055C0001E00780F00F007E3E001FF8001FF800775
:1055D000E7E00F00F81E00781E003C1E007C1F0054
:1055E000F80FFFF003FFC000000000000000000003
:1055F00000000000000000000000000000000000AB
:10560000000000000000000000000000000000009A
:105610000000000003FF800FC7E01E00F01E0078AE
:105620003C00783C00783C00381E00780FEFF8070B
:10563000FFB80000780000780000F00001E0000FE3
:10564000C00FFF000FF0000000000000000000008D
:10565000000000000000000000000000000000004A
:10566000000000000000000000000000000000003A
:10567000000000000000000000000000000000002A
:10568000007E00007E00007E000018000000000088
:105690000000000000000000000000003C00007E50
:1056A00000007E00003E000000000000000000003E
:1056B00000000000000000000000000000000000EA
:1056C00000000000000000000000000000000000DA
:1056D00000000000000000000000000000000000CA
:1056E000007E00007E00007E000018000000000028
:1056F0000000000000000000000000003E00007EEE
:1057000000007F00001F00001E00001E0000FC00C3
:1057100007F000040000000000000000000000008E
:105720000000000000000000000000000000000079
:10573000000000000000000000000000400001E048
:105740000007C0001F00007E0001F80003E0000F0A
:1057500080000F800003E00000F800003E00000F12
:10576000800003E00000E0000000000000000000F6
:105770000000000000000000000000000000000029
:105780000000000000000000000000000000000019
:105790000000000000000000000000000000000009
:1057A0000000000000000000001FFFF800000000E3
:1057B00000000000001FFFF81FFFF80000000000BD
:1057C00000000000000000000000000000000000D9
:1057D00000000000000000000000000000000000C9
:1057E00000000000000000000000000000000000B9
:1057F0000000000000000000000000000007800022
:1058000003E00000F800003E00000F800003E0000D
:1058100000F80001F00007C0001F00007C0001F04C
:105820000007C000030000000000000000000000AE
:105830000000000000000000000000000000000068
:10584000000000000000000000000000000001C097
:105850000001FE00007F800007C00001E00000F0B2
:105860000000F00001F00003E0007FC0007E0000B7
:10587000700000700000700000000000000000F8E0
:105880000000F80000F80000000000000000000028
:105890000000000000000000000000000000000008
:1058A0000000000000000000000000000000001FD9
:1058B0008000FFF003C07807801C0E000E1C000E55
:1058C0003C000F383FC778FFC770E3C771C3C7F309
:1058D000C387E3C387E3878EE3878EE3CF8EE3FF3F
:1058E000FC71F9F07000007000003800003C00000E
:1058F0000F01C007FFC00000000000000000000012
:105900000000000000000000000000000000000097
:1059100000000000007E00007F0000FF0000E78024
:1059200001E78003C3C003C3C00781E00781E00F24
:1059300000F00F00F81FFFF81FFFFC3C003C3C008C
:105940001E78001EF0000F000000000000000000A4
:105950000000000000000000000000000000000047
:105960000000000000000000000000000000000037
:10597000000000001FFFC01FFFF01E00F01E007897
:105980001E00781E00F01E01F01FFFC01FFFE01E6A
:1059900001F81E00781E003C1E003C1E00781E0010
:1059A000F81FFFE01FFF00000000000000000000E3
:1059B00000000000000000000000000000000000E7
:1059C00000000000000000000000000000000000D7
:1059D0000000000000FFF803FFF807C0000F000000
:1059E0001E00001E00003C00003C00003C00003C8B
:1059F00000003C00003E00001E00000F00000FC031
:105A00000803FFF800FFF80000000000000000009D
:105A10000000000000000000000000000000000086
:105A20000000000000000000000000000000000076
:105A3000000000003FFF003FFFE03C01F03C007829
:105A40003C003C3C003C3C003C3C001E3C001E3CFE
:105A5000001E3C003C3C003C3C00783C00F83C070D
:105A6000E03FFFC03FFC000000000000000000001D
:105A70000000000000000000000000000000000026
:105A80000000000000000000000000000000000016
:105A9000000000000FFFF00FFFF00F00000F0000EC
:105AA0000F00000F00000F00000FFFF00FFFF00FBE
:105AB00000000F00000F00000F00000F00000F009B
:105AC000000FFFF00FFFF0000000000000000000DA
:105AD00000000000000000000000000000000000C6
